:020000021000EC
:1080000000400020C9C5010011C6010013C60100CF
:108010000000000000000000000000000000000060
:1080200000000000000000000000000015C6010074
:10803000000000000000000017C6010019C6010082
:108040001BC601001BC60100358D010031900100E7
:108050001BC60100000000001BC601004191010089
:108060001BC60100258A01008D8901001BC6010085
:108070001BC601001BC601001BC601001BC6010078
:108080001BC601009DB201001BC601001BC60100FA
:108090007DB30100899301004DBB01001BC60100A7
:1080A0001BC601001BC6010000000000000000000C
:1080B00000000000000000000000000000000000C0
:1080C00010B5064C2378002B07D1054B002B02D0AE
:1080D000044800E000BF0123237010BDA820002049
:1080E00000000000B8230200044B10B5002B03D0A1
:1080F0000349044800E000BF10BDC0460000000076
:10810000AC200020B8230200164B002B00D1144BEA
:108110009D46402292029A1A924600218B460F46B3
:108120001348144A121A00F065F80F4B002B00D0C8
:1081300098470E4B002B00D09847002000210400E8
:108140000D000D48002802D00C4800E000BF00F0F0
:108150002DF82000290000F0BBF800F011F8C0460F
:1081600000000800004000200000000000000000A7
:10817000A8200020A8280020000000000000000027
:10818000084B10B50400002B02D0002100E000BF16
:10819000054B1868836A002B00D09847200000F038
:1081A00031F8C04600000000A811020070B500269A
:1081B0000C4D0D4C641BA410A64209D1002608F0FA
:1081C000E7FF0A4D0A4C641BA410A64205D170BDFE
:1081D000B300EB5898470136EEE7B300EB589847E9
:1081E0000136F2E7A0200020A0200020A0200020DF
:1081F000A420002003001218934200D17047197088
:108200000133F9E7FEE7C0461B4B1B78012B00D07A
:1082100070471A4B1B681B07FAD1F022184B1B68DA
:10822000134001D0102B24D1164B1B68134210D0E1
:10823000F022134B1B681340402BE9D1114B1B68F4
:108240001342E5D18022C1230121D205DB00D150A8
:10825000DEE70D4B0D4A1A6080220D4B12021A60A8
:10826000054B1B78012BD3D1044B1B681B07DFD0B8
:10827000CEE7302BD8D0DBE7E00F00F0E40F00F0C2
:10828000E80F00F0EC0F00F004050040DFFF07C02E
:10829000186C004082B00190019B002B14D0019B10
:1082A0000A48013B01930138C046C046C046C0465B
:1082B000C046C046C046C046C046C046C046C0468E
:1082C000F1D1019B002BEAD102B07047E703000017
:1082D000F0B5DE464E4657464546E0B583B000F061
:1082E0006BFD00F007FB00F0FFFB00F03BFF00F030
:1082F000D9FE6421012002F0EFFE01F02BF801F01D
:108300004BF80023444E0020337004F0EBF8337830
:10831000002B6ED1414B00249946414B00259846D5
:10832000404B414F9B4682235B009A4635E0013427
:10833000FA2C49D043461B68002B42D13B68984732
:1083400000F0C6FB002819D06B1C142128000193F3
:1083500005F026F800290AD1A021344BC905CA58D6
:108360008023DB051A4252D1A122D2008B5000F0AB
:10837000DBFE00F015FF00F0B1FB019D02F09AFE5C
:10838000002803D05B461B68002B29D0284B1878A7
:1083900003F0CAFD3378002B2BD14B4652469B5A33
:1083A000072BC4D903F046FE224B00241B788342DE
:1083B000C0D0214B187804F095F843461B68002B79
:1083C000BCD004F017F8B9E71B4B1B78002BB1D0D9
:1083D00001231A4A1360184A1370194A1360A9E757
:1083E00002F0DAFD124B187803F09EFD3378002B73
:1083F000D3D0144807F00AFF6420FFF74BFFBFF308
:108400004F8F114B114ADA60BFF34F8FFEE7A02167
:108410000F4AC9058B50AAE780280020902300202E
:10842000C82400202027002070230020040500001D
:108430007C2800208A230020BC240020C4240020A3
:10844000E0250020AC11020000ED00E00400FA0578
:108450000C05000010B5E124124A134B118864008A
:10846000081C09B2A14200DD201CE12418805188BB
:108470006400081C09B2A14200DD201CE1245880E0
:1084800091886400081C09B2A14200DD201C98807C
:10849000E120D2884000111C12B2824200DD011C92
:1084A000D98010BD642800202C27002010B5134B64
:1084B0001968002902DC012201211A600420104BF6
:1084C000104C185602025242226002229A560E4C5A
:1084D00012022260DB780D4A5BB21B0213600C4B68
:1084E000000200229A5E0B4B1B68D31A0A4A1B1823
:1084F00013604B43094A136010BDC046702800202A
:108500000C270020D42500204827002040270020E9
:10851000742800207C2300203C27002034270020E2
:1085200005227F2330B521498A569B1A204ADB0158
:10853000136002221F4B8A5600201B5E1E489201C8
:1085400000681B1AD21A1D4B1A601D4B1D681D4B6B
:108550006A430020185E1C4B1B68C01A1B4B1B682B
:1085600058431B4B121A1A6003221A4B8A560024D6
:108570001C5F194B92011B68E31AD31A174A136048
:108580006B43174A1B1813600423CB56154A9B01F3
:108590000021525E14490968521A9B1A134A13604B
:1085A000134A12685343134A136030BD0C2700204E
:1085B000D42500209C240020A8240020782300201B
:1085C000FC250020DC250020C0240020E825002018
:1085D00048270020AC2400205C2300202427002012
:1085E00040270020742800207C2300203C27002006
:1085F000702800203427002005227F2330B525482D
:1086000082569B1A244A1B0213600222234B825675
:1086100000215B5E2249920109685B1AD21A214B44
:108620001A60214B1D68214B6A431C68204B0021B6
:10863000595E204B1B68C91A61431F4B521A1A60BE
:1086400003221E4B825600215B5E1D499201096880
:108650005B1AD31A1B4A13601B4A6B430021525EFC
:108660001A490968521A5443194A1B1B1360042300
:10867000184AC3560021525E17499B010968521AD5
:108680009B1A164A1360164A12685343154A136020
:1086900030BDC0460C270020D425002068230020D0
:1086A000A824002078230020FC250020E8250020B5
:1086B000BA2400204C270020482700207E280020D4
:1086C0005C2300202427002080230020C0240020D9
:1086D00040270020A42400207C2300203C270020E9
:1086E000702800203427002005217F23104A1148DC
:1086F000515600685B1A10491B020968091A5B1A77
:108700000E490B600E4909684B430E490B6002236A
:10871000D3560D491B020B600323D3560B491B0292
:108720000B600423D3560A4A1B0213607047C046ED
:108730000C27002084280020B0240020642300207F
:1087400070280020D4250020482700204027002042
:108750003427002005217F230A4A51565B1A0A4913
:108760001B020B600223D35608491B020B60032334
:10877000D35607491B020B600423D356054A1B023C
:10878000136070470C270020D425002048270020C4
:108790004027002034270020F8B54F4B00201968EF
:1087A0004E4B1A684E4B52001E684E4B8D181B687C
:1087B0008A1A5B00CC1AAD1BCB18A419921B9B190B
:1087C000EE1C04DBEE170330304040198010002708
:1087D000E51C04DBE51703372F403F19BF100024C9
:1087E000D51C04DBD51703342C40A418A410002694
:1087F000DA1C04DBDA1703361640F618B6103A4BCB
:10880000994206DC0022394B1A805A809A80DA801D
:10881000F8BD07F031FC03F0BBFF0022344B06F03B
:10882000B9FD07F0F3FB00B2952836DDE1232F4DAB
:108830009B0098424BDC2880380007F01DFC03F0B9
:10884000A7FF00222A4B06F0A5FD07F0DFFB00B2D0
:10885000952832DC96236B80200007F00DFC03F096
:1088600097FF0022224B06F095FD07F0CFFB00B2E8
:1088700095281CDC9623AB80300007F0FDFB03F04D
:1088800087FF00221A4B06F085FD07F0BFFB00B200
:10889000952806DC9623EB80BAE79623134D2B80B0
:1088A000CAE7E1239B0098420DDCE880B0E7E123B2
:1088B0009B0098420DDCA880DEE7E1239B009842F4
:1088C00003DC6880C8E7EB80A2E76B80C4E72B80FD
:1088D000B2E7AB80D0E7C046D42500204027002077
:1088E0003427002048270020C40900006428002005
:1088F00000001840A222194B1949D2009950194A78
:10890000194980209950194904329950184A194937
:10891000C0039950A023EB210322DB05C9005A5064
:1089200008315A5010315A5008315A50A121C9000B
:1089300058508020400458508020400558508020D6
:10894000C00558500C495A5004315A5028395A50D1
:1089500008395A500021094A995070470060004078
:108960000315130014050000031713000319130067
:108970001C050000031D13004C0700001407000035
:108980000122014B1A7070478C280020A62210B5D6
:108990001F4B52009958002939D0002199501D4988
:1089A0000A683932FF320A6001229A641A4A127840
:1089B000002A2CD1A922D2009A58F423FF339A42DC
:1089C00025D81648828813B2DB43DB171340FA22FE
:1089D00019B29200914201DD1100131CC2888380FC
:1089E00013B2DB43FA24DB1713401AB2A400A242ED
:1089F00001DD2200231CC380FA239B009C46A82093
:108A0000034B6144C0001950054962445A5010BDDF
:108A100000A0004088280020282700202C270020C4
:108A200044050000A62210B51D4B5200995800299C
:108A300035D0002199504C3AFF3A9A64194A12787D
:108A4000002A2CD1A922D2009A58F423FF339A424B
:108A500025D81548028813B2DB43DB171340FA22EE
:108A600019B29200914201DD1100131C428803806B
:108A700013B2DB43FA24DB1713401AB2A400A2425C
:108A800001DD2200231C4380FA239B009C46A82082
:108A9000034B6144C0001950044962445A5010BD50
:108AA00000900040282700202C27002044050000CB
:108AB0000122054B9A64A922D2009858034BC008A2
:108AC0001B68C0187047C04600A0004088280020DE
:108AD000014B18787047C0468C2800200022014BBB
:108AE0001A7070478C280020F8B557464E46454608
:108AF0000023DE464F4AE0B513604F4A0121137050
:108B0000A2234E4ADB00D1509C46C1239B009A46CB
:108B100080231B039B4653465846A827FA24D0506F
:108B2000474E484B484DA400FF008020D451994641
:108B30009451535108236546800013509846434B87
:108B4000D1605E46595155465E513D4EDC519C51B7
:108B50004C463D4D5C5144461C50D9601160C022CA
:108B6000520090468022D200914619604246494602
:108B7000374B384C99508932FF3299580C40C021FC
:108B80000904214399504946196041465850995863
:108B9000314C0C40C02109022143995061461860B4
:108BA000A3202E4B2E4AC0005A502E4A2E495A500E
:108BB0002E4919502E481A50A4222E48D2009850FF
:108BC0002D4A2E481A50043019502D4910305A5051
:108BD000A6222C49D20099502B4A2C495A502C4994
:108BE00019502C481A502C4A0C30DA512B4A9A5101
:108BF0001950FF215A512A4A002099500023294A2E
:108C0000FA3902F017FE00280FD1274A0121274820
:108C100002F082FE00222649264802F093FE3CBC68
:108C200090469946A246AB46F8BD0022002102F0CC
:108C3000D9FAEAE7882800208C28002000A000400C
:108C400044050000C40900004C05000000900040ED
:108C500000E100E0FFFF00FFFF00FFFF00F0014028
:108C60004091004000600040140500004C9100401D
:108C70001C050000449100400460004024050000F1
:108C80002C05000040A100400860004034050000B1
:108C90004CA100403C05000044A100400C60004095
:108CA00004050000C420002081890100BC110200DD
:108CB000660600008C220020F8B5DE4657464E4678
:108CC00045469346E0B5002A19DD80238A4698463A
:108CD0007C3B0C0099460427114E124DDA44434662
:108CE0002178EF503378002B10D000230E4A3370D8
:108CF0000E4B0134D1504B462B605445EFD15846B2
:108D00003CBC90469946A246AB46F8BD084800F0E8
:108D1000D1F84B4601342B605445E0D1EFE7C04613
:108D20006420002000E100E0002000401C0500005D
:108D3000CC240020842210B5194B520099580029E8
:108D400016D18E23164C5B00E258002A09D000226F
:108D50001448E250183BC35A002B1CD10122124B7D
:108D60001A7092220E4B5200995800290AD110BD58
:108D700000219950A322D20099580C48C9B200F0A2
:108D800099F8DEE7002199509022D20099580848BE
:108D900007F03CFAEBE700F09DF8064BE050E0E707
:108DA00000200040CC2400206420002090230020DC
:108DB000C01102001C05000010B51E4800F070F83C
:108DC0001D4800F06DF8A023E7220321DB05D20047
:108DD000995000210E2008329950184B184AC0248F
:108DE0009850184A02309850174A1848A4009850D2
:108DF000A0200422C0001A508420400019501430D2
:108E00001950013199601960C2211E388900FF385C
:108E10005850A1200439800058500D4B8539FF3936
:108E20005A5019590B480840C021090401431951EF
:108E30001A6010BD90230020CC24002000200040A8
:108E40000C050000140500002405000000E0D70117
:108E500000E100E0FFFF00FF8023042110B50B4A72
:108E60000400D1500A4B1A78002A04D10422074B7F
:108E700020001A6010BD002206481A7000F02AF87F
:108E8000054A064B0134D050F0E7C04600E100E04F
:108E900064200020CC240020002000401C0500009D
:108EA00080220023FF21520083520232815202327B
:108EB0008352704710B58124FF236400025B0132A6
:108EC0001340822203535200C154835A0133835208
:108ED00010BDC04610B58024FF2103006400025B72
:108EE000805C01320A401A5305315A5A013A5A52EB
:108EF00010BDC04670B580256D002A000021040019
:108F0000FFF778F981220023FF2152006353A15219
:108F10000232A35270BDC046F0B54746CE469846D1
:108F200080B5002A47D0B1230027244E244D254C7C
:108F3000DB002F702770F0502348315080218900CA
:108F400077500121B16029780029FCD000212970D7
:108F500080211A488900012A24D001254550012189
:108F60001648894601608021890043468846FF39BA
:108F7000A325FF3900268C46ED0021780029FCD07E
:108F800026704159013AD2B21970012A0DD04946D2
:108F90000162002A01D00133EFE700200CBC9046AB
:108FA0009946F0BD02254550D9E741466746013351
:108FB00047500262E1E70120F0E7C0460030004080
:108FC000AD220020AC2200201C050000F0B5002AD4
:108FD00026D0B1270026134D134CFF002670E85110
:108FE000802080002E50114829500121A96021784D
:108FF0000029FCD0002100209A180A4E0B4D217048
:10900000D1B21A7872512278002AFCD00133DAB238
:1090100020709142F5D101220020024B5A61F0BD2F
:109020000120FCE700300040AD2200201C050000BC
:10903000F8B58423164A5B00D158002904D00021DA
:10904000D1500122134B1A708E23114A5B00D15864
:10905000002904D00021D15001220F4B1A70922513
:109060000B4C6D006359002B00D1F8BD0B4EA75976
:10907000FFF71EFDB123DB000200E358390008486A
:1090800007F0C4F80323A35100236351EDE7C04662
:1090900000300040AC220020AD220020C4040000BB
:1090A000D4110200A023E2211A4ADB05C90010B541
:1090B0005A5008395A500421174B053AFF3A995033
:1090C000164A023999500022CD200731FF315A50FB
:1090D00014315A501249C0045850C121A1208900AE
:1090E000800058500539FF395A50A022FC39D2006F
:1090F000FF399950C0230820C024C021094A5B00D1
:10910000D050A400135909061B021B0A0B4313512C
:10911000106010BD0C060000003000400C0500007F
:109120002405000000E100E08022044BD2009A58A0
:10913000002A01D101321A607047C0460070004019
:1091400080220021054B52009950A122D2009A584A
:10915000D3009B1A024A13807047C046007000403B
:10916000002600200A4B0B4A0B49C0209950A02131
:109170000122C9005A50FD39FF395A50074A0006EA
:1091800053581B021B0A034353508023136070473C
:1091900000700040040500000410000000E100E041
:1091A000F0B5C64600B5604C82B02578012D32D0AE
:1091B000002D1CD0022D07D1FFF77AFC5B4B1B68FA
:1091C000C01A5B4B984250D832200138C046C04686
:1091D000C046C046C046C046C046C046C046C0465F
:1091E000C046C046F1D102B004BC9046F0BDB122E9
:1091F0007721504BD20099508022753992009950B6
:109200004D4A4631995001229A602270FFF750FC76
:10921000464B1860D8E7FFF74BFC444E3368C01A42
:10922000434B9842D0D9454F03223B000021772081
:10923000FFF772FE7A783B7812021B041343BA7868
:10924000772113433E4A58201360B122394BD20094
:10925000995002228A31FF315A50374958509D6047
:109260002270FFF725FC3060AEE7344D03222B005F
:1092700000217720FFF750FE6A782B7812021B043A
:109280001343AA782F4D13432F4A002113606A8994
:10929000288912029B1A98461A00002304F0E8F964
:1092A0004E06CB110021C2093243AE883004121899
:1092B0004B41009201930021E8884246002304F0CC
:1092C000D7F90E06020A32436E880B12F003002112
:1092D00016001F00424636184F410023A88900217E
:1092E00004F0C6F9FA23DB009C464902C00D08438E
:1092F000164B60441860124B3200186800213B0086
:1093000004F0B6F9CD02420D4B152A43009801999D
:10931000121A8B4111005B04CA0B1A430C4B1A60E2
:109320000023237050E7C046BC220020B822002052
:109330000F270000003000401C050000B022002074
:1093400094280020C022002090280020A024002083
:10935000B024002070B5A024094E0A4D2B00022233
:1093600021007720FFF7D8FD2A786B7812020234AB
:109370001343E4B233800236B02CEFD170BDC04647
:10938000C0220020B42200200121024A13784B4061
:109390001370704728270020F0B5DE4657464E462A
:1093A00045464023E0B5002589B006AC25806370B2
:1093B000774B21006380774B0622A380764B0327EF
:1093C000981D9A4606F018FFA022A378D205984669
:1093D000C133FF339B009F50E378A1269946C133E8
:1093E000FF339B009F50207941460300C133FF3378
:1093F0009B009D506379F6009B46C133FF339B0071
:109400009F50664BB44699514E4665495E5088461A
:10941000043158500120594606008E4031006646FE
:10942000915161785F4E0906995124785E496646EC
:109430005C508421A0244900E4005D501851E024D0
:10944000E4001751594C1751644610518024A4016F
:1094500094515646564C2360F77A4646B840905190
:10946000544A5D5050359D505A58002AFCD0A322D2
:10947000D2009A58A0250192A122ED05D200A85051
:10948000019A01320192464AA85000255D500121FF
:10949000484A99509D508422404B520099580029C7
:1094A000FCD000219950A322D2009B588422029321
:1094B0003A4B520099580029FCD0A321C9005958B1
:1094C000A0250291A121ED05C90068500299013142
:1094D00002913349685000219950364A063199501B
:1094E00003312E4BFF315A58002AFCD0A322D20060
:1094F0009A58A0250392A122ED05D200A850039A04
:10950000842701320392264A7F00A85000225A5035
:109510006021284A214D9950EB59002BFCD0A32300
:10952000DB00EB580493A023DB059846A1234246B9
:10953000DB00D050049B642001330493FEF7AAFEA5
:10954000534601212560DB7A42469940144B842022
:10955000D15000230622EB51164B4000EA500F4B2E
:109560001A58002AFCD0A322D2009B58A0220593AF
:10957000A1230120D205DB00D150059B01330593C7
:1095800009B03CBC90469946A246AB46F0BDC046E9
:109590000B09000012110000D422002000400040FE
:1095A0000C050000240500005405000034070000ED
:1095B000D02200201C050000242330B51E4C83B0AF
:1095C000E35C002B16D0002812D16B46D8712368BB
:1095D0000122597C636818786B460733FFF7F6FC65
:1095E000002826D16B460020DB79637403B030BDC0
:1095F0000220EAE7A37A002B1BD000280FD16B468C
:10960000DD1DD87123680122597C636818782B000E
:10961000FFF7DCFC00280CD12B786374E6E7637C51
:10962000002B04D16B46DD1D01232B70EAE70020DF
:10963000DCE701204042D9E76820002030B5544CD7
:1096400083B0A37A002B00D19EE06B46DD1D002382
:109650002B7023680122597C636818782B00FFF770
:10966000B5FC002800D08FE0236801225979636897
:1096700018782B00FFF7AAFC002800D084E02368AC
:1096800001221979636818782B00FFF79FFC0028E6
:1096900000D079E02268636811792422A25C002A54
:1096A00036D00C222A7018780B3A2B00FFF78EFC6C
:1096B000002869D13230FEF7EDFDC0232B70A37A6C
:1096C000DB0701D5E0232B70236801221979636839
:1096D00018782B00FFF77AFC002855D1637C002B0B
:1096E00000D002232B7023680122597C636818780C
:1096F0002B00FFF76BFC002846D1236828705979AE
:109700006368012218782B00FFF760FC404239E0C3
:1097100004222A701878033A2B00FFF757FC002820
:1097200032D1A27C4023002A06D1A27A3F3B1340CB
:109730001F22013B934360332B7023680122197968
:10974000636818782B00FFF741FC00281CD13230E9
:10975000FEF7A0FD637C5A1E93412B702368012203
:10976000597C636818782B00FFF730FC00280BD178
:109770002300226810335179626810780122FFF7C4
:1097800025FC404203B030BD01204042FAE7C0460C
:1097900068200020174A537A012B22D0002B18D0C2
:1097A000022B0ED0032B09D110230370D27C202171
:1097B0000023002A00D001701800704701235B428B
:1097C000FAE708230370D27C10210023002AF3D08B
:1097D000F1E702230370D27C04210023002AEBD09E
:1097E000E9E704230370D27C08210023002AE3D098
:1097F000E1E7C0466820002030B5204C83B0A37A52
:10980000002B37D06B46DD1DBB2815D861281BD92E
:10981000022302222B70E37A934213D023680122A1
:109820009978636818782B00FFF7D0FB002821D1C6
:109830002B78E37203B030BD012301222B70E37A51
:109840009342EBD10020F5E7292805D8132807D942
:10985000042304222B70DEE7032303222B70DAE7B4
:10986000092803D9052305222B70D4E706230622F5
:109870002B70D0E701204042DCE7C0466820002082
:10988000F0B5C646242300B52A4D82B0EB5C002B10
:1098900042D1AC7A002C45D00133984304402F7C50
:1098A0002C74241A621E944106006442002814D1CC
:1098B0002A7D002A32D06A7C002A28D107226A44F5
:1098C00013702B689046597C6B681878130001223E
:1098D000FFF77CFB002811D019E06A7C002A12D126
:1098E00007326A4413702B689046597C6B6818786D
:1098F00013000122FFF76AFB002804D143461B78BE
:109900006B74002E03D0FFF799FE00280DD12000C4
:1099100002B004BC9046F0BD0024F8E70020FFF739
:109920004BFEF4E701246442F1E701242F74644202
:10993000EDE7C0466820002070B5060082B02828F8
:1099400000D9B1E023235E4C01ADE35C00282BD1AC
:10995000002B18D02870A37C8022002B02D0022379
:1099600002322B702223E35C002B00D074E02368CA
:109970000122D97D636818782B00FFF727FB0028A8
:1099800001D12323E054E023DB002B802368022253
:10999000597D636818782B00FFF718FB002800D06A
:1099A00082E0207502B070BD012B19D030232B70DE
:1099B000A37CB022002B02D0322302322B70222350
:1099C000E35C002B46D123680122D97D63681878B7
:1099D0002B00FFF7FBFA002802D123230122E254D7
:1099E00020232B70A37A62682168012E4ED0052EA9
:1099F00040D9142E32D903206870002B52D0042392
:109A00006846C370E37A042B4CD06B461078897893
:109A100003330122FFF7DAFA002848D16B46072208
:109A2000DB782168E3726B789B0113436268DBB2D9
:109A30006B701078497D2B000222FFF7C7FA0028CF
:109A400032D10823A372073B20732375FFF718FF59
:109A50000020A7E72A70B6E72A7088E7022068701E
:109A6000002B05D005236846C370E37A052BCCD1C3
:109A70008723DDE701206870002B05D006236846A8
:109A8000C370E37A062BC0D14723D1E7002068706A
:109A9000002B05D006236846C370E37A062BB4D1A9
:109AA0000723C5E7C723C3E7012040427AE707231E
:109AB0006A78216892011343DBB26268B8E7C04656
:109AC0006820002070B53A4C82B0A37A0600002BC3
:109AD0006AD02423E35C002B66D1227D01AD002AED
:109AE0002DD0421E272A5AD92322A25C01AD002A7A
:109AF00017D02B70A37C8022002B02D002230232CD
:109B00002B702223E35C002B47D123680122D97DEF
:109B1000636818782B00FFF759FA002801D1232336
:109B2000E054E023DB002B8023680222597D636828
:109B300018782B00FFF74AFA002800D12075FA2385
:109B4000311C9B009E4223D88BB2042B1ED3FA20DB
:109B500089B2800003F028FC236801382870597806
:109B60006368012218782B00FFF730FA00281BD118
:109B7000FA2029788000013103F016FC80B2E081E0
:109B80004008FFF739FE002002B070BD0421DEE777
:109B9000191C8BB2042BDAD2F8E72A70B5E7C0B2F1
:109BA000FFF7CAFE0020EFE701204042ECE7C04685
:109BB00068200020F0B5CE46474680B54A4C83B0B9
:109BC00023680500597D70236268034000D180E05E
:109BD0006B469E1D01233370107833000122FFF77E
:109BE000F5F9002800D07AE04022337830709343B2
:109BF00023732A4260D03A208446373881460138A0
:109C00003823392201213B278046A80604D4434645
:109C10003A00337049466346E80601D413003170B8
:109C20002A0700D4337023680122997D636818786D
:109C30003300FFF7CBF9002851D108232A009A43BB
:109C400020D02323E35C002B1CD06B46D871A37C6F
:109C50008022002B03D06A460223D3718222222362
:109C6000E35C002B01D06B46DA7123680122D97DB9
:109C7000636818786B460733FFF7A8F9002801D10D
:109C80002323E05400233220A5722375FEF702FB44
:109C9000002003B00CBC90469946F0BD6B464027AF
:109CA0009E1D3770107833000122FFF78FF90028CE
:109CB00015D13378BB4323733E20042384463738C1
:109CC0008146013833703D22383305213F278046D5
:109CD0009BE70028E2D06846861D33707CE70023AE
:109CE0000120A3724042D4E768200020802370B591
:109CF000724C84B002AD2B7023680122597D6368D9
:109D000018782B00FFF762F9061E00D0C3E064202C
:109D1000FEF7C0FA23682E70597D63680122187817
:109D20002B00FFF753F9002800D0B4E070232B700C
:109D300023680122D97E636818782B00FFF746F963
:109D4000002800D0B0E023680622597E63681878A6
:109D50002B00FFF7E1F8002800D09CE004236A798B
:109D60000126920013400222E97849000A40134379
:109D70006A783240134300D177E0D9B2012B03D087
:109D8000022900D08AE00023E37400232B702368AB
:109D90000122D97E636818782B00FFF717F9051E9A
:109DA00000D081E00123A08220005B42A360E38118
:109DB00023740133FF33A374FE3B638416300C22FB
:109DC00000212373FEF716FAA37A6562002B62D096
:109DD0006B46DD1D18232B70237A032B0FD02368CD
:109DE00001229979636818782B00FFF7EFF80028B3
:109DF00051D12B78DB082372A37A002B4BD00023A0
:109E00002B70637A002B0FD023680122D979636805
:109E100018782B00FFF7DAF800283CD12B78DB0804
:109E20006372A37A002B36D005232B70E37A052BBF
:109E30000BD0236801229978636818782B00FFF70C
:109E4000C5F8002827D12B78E372FA208000FFF7AD
:109E500039FE00281FD1FFF713FD041E1BD100207F
:109E6000FFF7A8FE200004B070BD23680122D97856
:109E7000636818782B00FFF74FF800280BD10F23E9
:109E80002A78134013D0042B00D07CE70C4806F04E
:109E9000BDF9E67479E701246442E3E70124094847
:109EA00006F0B4F96442DDE703246442DAE70124F2
:109EB000054806F0ABF96442D4E7C04668200020AC
:109EC000901202001812020040120200F0B557462C
:109ED000DE464E464546E0B51F00242391B0904C27
:109EE00005900B91E35C002B00D010E13B70A37A4E
:109EF000002B00D10BE1237C002B00D107E1402295
:109F00001A4000D0DDE000210A9109910631089144
:109F100007910691043903910291063101918B4614
:109F20008C4604398A4688460631049106390A254A
:109F30000A2089460226990613D40399019D8A4670
:109F40000A99584603910299B14688460999160024
:109F500002910899019107998B46614604910699EF
:109F60008C46DA0608D4039A58469246029AB146BD
:109F700090466246019D04921B0703D5049BAA46A6
:109F80008046994623680DAD197B636802221878D4
:109F90002B00FEF7C1FF002800D0B8E02E786B78C8
:109FA00036021E43464500D283E063682268187873
:109FB0005B885B08B3420ED2D17C2B000122FEF7F6
:109FC000ABFF002800D0A2E02B78DB0600D5A1E093
:109FD000636822681878517B2B004A46FEF79CFF85
:109FE0008346002800D092E05146300003F0DCF9AF
:109FF0001A9B013818705B463B704B46002B58D0BB
:10A00000237C1A0700D476E02A786B780B99120229
:10A0100013430B80AA78EB78120213434B802A7902
:10A020006B791202134308228B803B7813433B70F9
:10A030004346062B3DD00B22092606219246013AC3
:10A0400091469346023A237C94460192013A58067F
:10A0500012D56B5CAA5C1B021343059A1380402245
:10A060003B7813433B70C44523D048463200DC465E
:10A070005646237C0199019098060ED5695CAB5C2D
:10A080000902059A0B43538020223B7813433B700F
:10A09000C4450ED03200237C0199DB0609D5695CEA
:10A0A000AB5C0902059A0B43938010223B78134363
:10A0B0003B70002011B03CBC90469946A246AB468E
:10A0C000F0BD02220A920992063208920792069285
:10A0D000043A039202920632019293469446043A5D
:10A0E0009246904606320492063A91460C250C2080
:10A0F0000426043A1FE705229246013A9146934608
:10A10000023A019294460326013A00219FE701207A
:10A110004042CFE7FFF792FA02204042CAE7C0462A
:10A1200068200020F0B54746CE46242380B5284C51
:10A1300083B0E35C070089469046002B3BD0A37AAE
:10A14000002B38D0236801AE197B6368022218788F
:10A150003300FEF7E1FE00282DD1357873782D020B
:10A160001D43BD422AD36368216818785B885B0869
:10A17000AB420CD2C97C33000122FEF7CDFE002891
:10A1800019D13378DB061DD4636821681878FAB2D8
:10A19000497B4B46FEF7C0FE00280CD13900280051
:10A1A00003F078F8434601381870002003B00CBC67
:10A1B00090469946F0BD01204042F7E743461870AB
:10A1C0000138F3E7FFF73AFA02204042EEE7C046D3
:10A1D0006820002070B5384C82B0A37C0600834212
:10A1E00060D0636801221878236819796B46DD1DF9
:10A1F0002B00002E30D0FEF78FFE002859D12022F0
:10A200002B7893432B7023681F3A19796368187869
:10A210002B00FEF7DBFE00284BD10330FEF73AF8A7
:10A2200002232B702033E25C1033002A02D050331B
:10A230002B7030332322A25C002A38D123680122FC
:10A24000D97D636818782B00FEF7C0FE002830D156
:10A250000020A67402B070BDFEF75EFE002828D173
:10A26000A27A2B78D2071FD4202293432B70236825
:10A2700001221979636818782B00FEF7A7FE0028E1
:10A2800017D10330FEF706F82223E35C3022002BBF
:10A2900001D0B02280232B702323E35C002BCDD090
:10A2A0002A70CBE70020D5E720221343DEE72B708E
:10A2B000C4E701204042CDE7682000202223024A63
:10A2C000D05400207047C04668200020232370B57A
:10A2D000174C82B0E35C0500834224D000281DD1D6
:10A2E00000218022822002266B4607331970A17C50
:10A2F000002901D002001E702221615C002900D0DB
:10A300001A702268D17D626810780122FEF75EFE25
:10A3100000280AD12323E55402B070BDB022B22038
:10A3200032263021E0E70020F6E701204042F3E743
:10A330006820002070B50D0082B0161E1FD0114C91
:10A34000A37A002B1BD042BA01AB1A806268C0B25C
:10A3500040185189884212DC21681078C97E022297
:10A36000FEF734FE00280AD12368EAB2197E63683A
:10A3700018783300FEF72AFE404202B070BD01207B
:10A380004042FAE768200020F0B5DE4645465746D1
:10A390004E46E0B58BB003932523374D00910292D2
:10A3A000EB5C8346002B44D1002942D0002405AF4A
:10A3B00000282DD146E0AB7A002B3AD063BA3B801F
:10A3C00033041B0C98466A680197E3B251894344F1
:10A3D0008B422EDC2B681078D97E02223B00FEF7E0
:10A3E000F5FD002825D12B68F2B2197E6B6818782C
:10A3F00006ABFEF791FD00281BD1424606A9504648
:10A4000005F0ECFE002833D14C44A4B2A3451AD980
:10A410005B461E1B102E00DD1026B3B29946009B32
:10A4200049469A46A24452462000FFF783FF00287F
:10A43000C1D0012040420BB03CBC90469946A24698
:10A44000AB46F0BD0197029B019A5BBA13802B6863
:10A45000597F6B68187813000222FEF7B7FD0028B9
:10A46000E7D125230122EA54039B0020EB84E2E795
:10A4700002204042DFE7C0466820002070B5242655
:10A480001F4C82B0A35D0500834234D0002820D049
:10A490002523E35C002B30D00020FFF78DF800204F
:10A4A000FFF798FEE08CFFF70DFB6B4600220733A9
:10A4B0001A706268232110780122FEF787FD0123BC
:10A4C0000120A355FFF778F8FFF7B8F8002002B095
:10A4D00070BD0020FFF770F86B46227C07331A70BE
:10A4E0006268232110780122FEF770FDA555FFF761
:10A4F000A5F80020EBE70020E9E701204042E6E76D
:10A5000068200020802210B5C823D20002490348E9
:10A51000FFF73AFF10BDC04634130200F60B0000EF
:10A52000F0B5C64600B5404B86B002A90B806C233F
:10A530008B703E4B03AA13802C2393703C4B04AFCB
:10A540003B807623BB703B4B05AE33806623B370F4
:10A55000633B050018006C4628408446085C98461A
:10A560002070E80818406B460C5C5C704346AC09F0
:10A5700023406C46C95CD35CA1706146515C01AC60
:10A580002170115C6A4661702B480321A370FFF7AC
:10A59000D1FE002844D1220003212848FFF7CAFE3B
:10A5A00000283DD103223900684605F025FE03222C
:10A5B0003100200005F020FE6B0707D56B46012116
:10A5C0001A780A431A7023780B432370AB0607D519
:10A5D0006B4601215A780A435A7063780B436370C3
:10A5E000EB0514D488206A460321C000FFF7A2FEC1
:10A5F000002815D1220003211148FFF79BFE0028F7
:10A600000ED1104B1D8106B004BC9046F0BD6B46C8
:10A6100001219A780A439A70A3780B43A370E1E76B
:10A6200001204042EFE7C0464CCDFFFF0CC9FFFFC1
:10A630003656000026460000260400002A040000CA
:10A6400031040000E022002070B586B003AC220087
:10A65000114B050043CB43C2C82D1AD8002301AECD
:10A660002900C820337002F09FFE0138707032005C
:10A6700002210A48FFF75EFE00280AD122000C21C1
:10A680000748FFF757FE002803D1064B9D8106B00F
:10A6900070BD01204042FAE7F812020016020000E5
:10A6A000C10A0000E0220020F0B5040083B0430797
:10A6B0005FD0C823DB0099425BD8080003F0B6FEE8
:10A6C000504903F0B1F96B46DD1C071C2800FFF769
:10A6D00061F82B78042B00D184E021D9082B00D11C
:10A6E00070E0102B45D18A21381CC90503F078FB96
:10A6F00002F0E8FF444986B2381C03F071FB02F017
:10A70000E1FF80B201AD76BA40BA2E806880E307DF
:10A710001ED4A30730D4630741D4002003B0F0BD9A
:10A72000022B26D18D21381CC90503F059FB02F0FC
:10A73000C9FF364986B2381C03F052FB02F0C2FF53
:10A7400080B201AD76BA40BA2E806880E307E0D5CA
:10A75000EA202A0002214000FFF7ECFD002808D182
:10A760006B4625309A1D0221FF30FFF7E3FD0028DC
:10A77000CFD001204042D1E7EC202A000221400046
:10A78000FFF7D8FD0028F4D16B4629309A1D02212D
:10A79000FF30FFF7CFFD0028EBD16307BDD5EE20DA
:10A7A0002A0002214000FFF7C5FD0028E1D16B46D9
:10A7B0002D309A1D0221FF30FFF7BCFD431E98414A
:10A7C0004042ABE78B21381CC90503F009FB02F0BE
:10A7D00079FF0F4986B2381C03F002FB02F072FFCA
:10A7E00080B28FE78C21381CC90503F0F9FA02F01A
:10A7F00069FF084986B2381C03F0F2FA02F062FFE2
:10A8000080B27FE7000048430000C044000040469B
:10A81000000040450000C045F0B54646D6464F46CC
:10A82000C0B586B08F4B03AC06002200042168201F
:10A830000393FFF77FFD4022A3233240237090460D
:10A8400000D1F6E0C0271D336370874B7F00638023
:10A85000374000D1F5E0854BA380C623A371A32325
:10A86000E371834B220023810A218248FFF762FDB6
:10A870000323334099465A4253415A42B823134066
:10A880002033220001217C4823706D46FFF752FDE2
:10A89000B30600D4DAE0794B0C332A0003CB03C2B1
:10A8A00097201B7809211370C0002A00FFF742FD92
:10A8B000002F00D09BE0F30700D4A4E08B20F82306
:10A8C0002200012100012370FFF734FDFA21072047
:10A8D000FFF7EAFEA4203F232A00012140002B704D
:10A8E000FFF728FD502000232A000121FF302B70A4
:10A8F000FFF720FDA023EF205B012B802A0002211F
:10A900004000FFF717FDC823ED20DB012B802A0054
:10A9100002214000FFF70EFDAE20594B2A00042112
:10A9200040000093FFF706FD8023AD201B012B8024
:10A930002A0002214000FFF7FDFC8023AC209B0091
:10A940002B802A0002214000FFF7F4FCB307DB0F45
:10A95000D833220001214B482370FFF7EBFC73072B
:10A9600000D476E0484B00932A0004214748FFF7C3
:10A97000E1FCFEF763FEF30636D40422A32128008F
:10A98000FDF738FC2A0004214148FFF7D3FCFEF70D
:10A9900055FE08233F4C33436381FEF74FFE434689
:10A9A000002B39D10A2084460C30824610381422FC
:10A9B00010211A258046A3730433002F04D0434688
:10A9C0002A00A373514663461420304201D013007D
:10A9D000A1734A46002A00D0A373002006B01CBC15
:10A9E00090469946A246F0BD2B4B0093CAE7F3056B
:10A9F00035D52A4B0393220004212948FFF79AFCFE
:10AA0000F30700D55AE78B20D8232200012100014B
:10AA10002370FFF78FFC99E71020062384460C3043
:10AA200082461038A3731A2204331621202580464B
:10AA3000C3E7C02763700E4B7F006380374000D0B0
:10AA400009E70B4BA380A323A37108E70B4B183333
:10AA500023E704228B212800FDF7CCFB84E7114B70
:10AA60000393C8E702CAE309C8C2FFFFC4CCFFFFD3
:10AA7000A3A3FFFFA70A0000B60A0000F812020015
:10AA8000008EF9903D070000C0C2C4C6980A0000BD
:10AA90009E0A0000E022002020283038B28BB69BAE
:10AAA000A20A0000B080B490F0B55746DE464E468C
:10AAB00045460023E0B591B01A9C06002380814BE7
:10AAC0000F00987B924608A91B9AFFF72BFB03B255
:10AAD00098462380181E7AD114227A4B5B891A4239
:10AAE00000D07BE00325AC46013DA846013DA946C8
:10AAF00000250C2100220420AA4607910139069165
:10AB000001390591013904910139039101399346C5
:10AB10000291063201390191009201395D062DD56D
:10AB2000524608ADAA5C120292462A004D46525D7A
:10AB3000554615433D80454608AA525D65461202BA
:10AB4000904608AA525D4546154308AA515C105C20
:10AB5000009A00029346079A08430092049AB8802C
:10AB60009446039A08209046029A7D809146019A65
:10AB7000218892460143218005980699C0277F00CD
:10AB80003B4221D0554608AA575D4D463A029246AF
:10AB900008AA575D52464546174308AA3780575DB5
:10ABA00065463A02904608AA575D4246174308AAEE
:10ABB000105C515C00020143009A7020934677803C
:10ABC000B1802188014321809B0754D1002011B01E
:10ABD0003CBC90469946A246AB46F0BD5146504615
:10ABE000089A12BA0A600999121409BA41600A98BF
:10ABF000091400BA844689466146524309146546E1
:10AC00008C4611004A4652438918624650465243C8
:10AC10008A18F1218560554609068C4680210B98DB
:10AC2000890400BAE86000144043121862448A4262
:10AC300040D88022218852000A4322801022934665
:10AC40000632009206320792013A0692013A0592C4
:10AC5000013A0492013A0392013A0292013A0192B6
:10AC6000033A9446013A9046013A9146013A152139
:10AC70001420924652E708AB9C465C4664446378D5
:10AC8000E678DA070BD50F4A1268002A07D00720AA
:10AC90000100F308314018400131904763781B07E9
:10ACA00094D5084B5B68002B00D18FE7B00998471B
:10ACB00000208CE7FEF7C2FC43460120238040427F
:10ACC00085E7C046E02200200023F0B5C356002BE4
:10ACD00011DD382320249C46082110252827302602
:10ACE000002303228256002A17DD06228256002AFC
:10ACF00025DD98B2F0BD002B4ED10123C356002BA9
:10AD000027DD0322392382569C462124092111255F
:10AD100029273126383B002AE7DC002A35D10422D6
:10AD200082560B00002AE0DC5FD1052282562B0000
:10AD3000002ADADC3300002AD7D16346D5E7002A9F
:10AD400025D107228256002A13DD402003431BB27F
:10AD5000CFE7002B4BD10223C356002B33DC24D189
:10AD60003F339C4627240F2117252F273726383BB2
:10AD7000B7E7002A34D108228256002A2CDC1DD1E4
:10AD8000E020400003431BB2B3E72300ADE780207F
:10AD9000400003431BB2ACE73C2324249C460C2117
:10ADA00014252C273426383B9BE73E2326249C463B
:10ADB0000E2116252E273626383B92E7C02040006C
:10ADC00003431BB295E73A2322249C460A2112250D
:10ADD0002A273226383B84E7802003431BB288E7CA
:10ADE000A020400003431BB283E73B007DE73D23E7
:10ADF00025249C460D2115252D273526383B70E747
:10AE0000F0B5DE4657464E464546E0B5050085B0EE
:10AE1000006803F0C1FAC221890502F0E1FF041CB9
:10AE2000686803F0B9FAC221890502F0D9FF8046AB
:10AE3000A86803F0B1FAC221890502F0D1FF81466A
:10AE4000E86803F0A9FAC221890502F0C9FF211CB4
:10AE5000051C201C02F0C4FF4146071C404602F0BE
:10AE6000BFFF49468246484602F0BAFF291C0090BF
:10AE7000281C02F0B5FF5146061C381C03F0C6F82A
:10AE8000009903F0C3F8311C019602F051FC05F063
:10AE90002FF902900391291C484602F0A1FF414678
:10AEA0008346201C02F09CFF011C584602F040FC27
:10AEB00005F01EF902000B0003F0F8FA029A039B5A
:10AEC00001F062FC0022304B04F064FA05F09EF8B9
:10AED0002E4B291C1880404602F082FF49468346CB
:10AEE000201C02F07DFF011C584603F08FF805F08E
:10AEF000FFF8C02300221B0604F04CFA01F0E6FB29
:10AF000080268B46844636065E44604600221E4BF1
:10AF1000310004F03FFA05F079F81D4B51461880D6
:10AF2000381C02F005FC009903F070F8019903F059
:10AF30006DF805F0DDF806000F004046494602F0C6
:10AF40004FFF291C8046201C02F04AFF011C40468E
:10AF500002F0EEFB05F0CCF802000B0003F0A6FABD
:10AF600032003B0001F010FC0022074B04F012FA03
:10AF700005F04CF8074B188005B03CBC904699464C
:10AF8000A246AB46F0BDC046005FC4409C240020F2
:10AF9000AC2400206A23002000B51C4B8DB0019327
:10AFA0000E236B44009306A9002308AA04A8FFF708
:10AFB0007BFD41B2002924D108A8FFF721FF6B4691
:10AFC0007022DB891A420FD11B070BD56B461A8BF7
:10AFD0000F4B1A806B465A8B0E4B1A806B469A8B1E
:10AFE0000D4B1A800DB000BD6A46118A0B4A1180C4
:10AFF0006A46518A0A4A11806A46918A094A118032
:10B00000E2E7094805F002F9ECE7C0466C230020AE
:10B01000D225002060230020882300201427002050
:10B02000DC250020742800202C1F020000B5194BDD
:10B0300089B000930F2306A96B44002204A8FEF7F1
:10B0400045FF41B2002920D16B467022DB7B1A42BA
:10B050000BD06A46118A104A11806A46518A0F4AFB
:10B0600011806A46918A0E4A11801B070BD56B46E8
:10B070001A8B0C4B1A806B465A8B0B4B1A806B4603
:10B080009A8B0A4B1A8009B000BD094805F0BEF83A
:10B09000F9E7C0466C23002014270020DC2500209F
:10B0A00074280020D225002060230020882300205F
:10B0B0004C1F0200A022A223D205DB00D3589B061E
:10B0C00005D4044B1878431E9841C0B27047012044
:10B0D000FCE7C0466C23002070B5050082B000205C
:10B0E0000E00FEF703FE0100324805F08FF87820CD
:10B0F000FEF760FD0100304805F088F87820FEF783
:10B10000BFFB01002D4805F081F80020FFF7D6F8BD
:10B110000120FFF7DBF8002D2DD0FFF7F3F9010038
:10B12000274805F073F82748FFF7CEFDFFF7F8F939
:10B130000100254805F06AF87220FF30FFF76CFB2C
:10B140000100224805F062F86420FFF77DFA010053
:10B150001F4805F05BF80120FFF790F901001D483A
:10B1600005F054F80A20FEF747FB01001A4805F0E5
:10B170004DF802B070BD6B46DC1D0122DD711A2155
:10B1800023006820FDF722FF0100144805F03EF877
:10B19000FA203100400102F007F901382070230045
:10B1A000012219216820FDF711FF01000C4805F06C
:10B1B0002DF8DEE7701F0200881F0200A01F0200AA
:10B1C000B81F020094200020D01F0200E81F0200D8
:10B1D0000020020018200200302002004820020057
:10B1E0006020020010B50B0001000B4805F00EF8BE
:10B1F000A022A1238021FA20D205DB00C900D15072
:10B20000C000FDF747F8BFF34F8F044B044ADA60E4
:10B21000BFF34F8FFEE7C0467820020000ED00E04C
:10B220000400FA0580218023184A8902D150802227
:10B23000D221174B520289005A5040395A500122EC
:10B240002F205A600138C046C046C046C046C0469E
:10B25000C046C046C046C046C046C046C046F1D102
:10B260009A6000230B4A2F2013600138C046C04665
:10B27000C046C046C046C046C046C046C046C0469E
:10B28000C046C046F1D1044A1370704700E100E0A7
:10B290000010014004230020F5220020A021F0B579
:10B2A0000023C6462C4A490000B553500431535080
:10B2B00004315350043153504C39535004315350DE
:10B2C000264B1B68002B37D0254900255458254AAA
:10B2D000254F1268A41A00222402240A904602E094
:10B2E000002E1AD033001A68A24216D8A41AAD183C
:10B2F0001A7CDE69002AF3D0424699691A745A69A9
:10B300003B68002B1BD0100098470028E8D0002293
:10B310000021FFF767FF002EE4D11449144A0B788F
:10B3200012789A420ED0134A9B009D5080218023B0
:10B33000114A5B004903D15004BC9046F0BD08009F
:10B340009047CDE70132D3B2022B01D00B70EAE770
:10B3500000230B70E7E7C046001001400C230020DB
:10B360000405000004230020F02200200123002017
:10B3700000230020F822002000E100E0F0B54E4656
:10B38000DE4657464546E0B5B24BB34A9946B34907
:10B390001B688DB0039309781378994200D1C1E1FD
:10B3A0000133DBB2022B00D128E11370AC4A9B00C1
:10B3B0009B584A469C46039B63441B021B0A079307
:10B3C000136001230A93A74B1968A74B1B789B4670
:10B3D000A64B5C461A68A64B049218785B46013B64
:10B3E000DBB20B900993002C00D1A1E1DB00984661
:10B3F000079B42440293002315000A000193069321
:10B400009C4B0590089328786F78B8421FD03E0077
:10B410006B68440024189A460130AB78C0B21B1AFE
:10B420005F1EBB41E4005B42544418402378022B6A
:10B4300014D0032B09D1002A07D000231374D2693A
:10B44000002AFAD101236E780193B042E0D12B009B
:10B450000498083BA84238D01D00D4E76368002A4E
:10B46000F3D093421CD0140000E03C00E769002FA9
:10B47000EBD0BB42F9D1A3420AD0FB693E68E3613D
:10B48000002B03D01C68A24656441E606E78DCE791
:10B49000D269002A0DD001241E68DB610194F1E716
:10B4A000D36914001700002B03D01A000123019365
:10B4B000E3E70122089B9A60012301930023029392
:10B4C0000133002206930593D7E7069B002B00D19A
:10B4D00037E1674B059818704B4602981860019B3E
:10B4E000002B00D191E15F4B891A1A604B1E9941E4
:10B4F000CBB201930A9B002B00D08DE10027049B67
:10B500001400434418000023904603933A1E2DD0A4
:10B51000936851689C461300D269029D564E4D1B9C
:10B520002D022D0AB54254D8290000260125614478
:10B5300019605E609E601D74DE61002C5AD0276821
:10B54000A3468C468F427AD26146C91B8A46594629
:10B55000CD69002D5DD1AC46514619606146D96177
:10B560005946CB6123001C00002AD1D19446437870
:10B5700001788B4246D0827847684D006D180131C2
:10B58000ED00C9B27D190170914202D10021017014
:10B5900000212E78012E33D16E68B246367C002E03
:10B5A0002ED15346A96837005960EE6862469E6006
:10B5B000B4462E69DE606D699D61059D002DACD09D
:10B5C0000021029D2C4E4D1B2D025F602D0AB542BD
:10B5D000AAD9029D691A0902090A614524D2654661
:10B5E0000026691A012519605E609E601D74DE6187
:10B5F000002CA4D101211C000391B5E70023D4E65F
:10B600008B42BAD10300049A083B824236D018001C
:10B61000ADE72968514519D36646AC460D00ED19D2
:10B62000A91B6546296097E7002501211D605D6023
:10B630009D601974DD61002CDCD000212768791A27
:10B6400021600121DC6103911C008DE7AB46D446EB
:10B650000F0079E7042300200023002001230020AD
:10B66000F82200200C2300200823002010230020B3
:10B67000F422002000100140FEFF7F00039B4246A1
:10B68000002B00D15AE0654B1C60944202D1019B13
:10B69000002B3DD0002C00D17AE0614A614823683C
:10B6A00081584A461468604D0A1B12022E78120A0D
:10B6B0000332A946002E49D0934200D213001B1931
:10B6C000A82458481B021B0AE400554D0351425957
:10B6D0005B1A521A1202120A1B0203321B0A9A4206
:10B6E00016D9435903512F200138C046C046C046E1
:10B6F000C046C046C046C046C046C046C046C0461A
:10B70000C046F1D180238021484A5B008902D15094
:10B710000023474A13700DB03CBC90469946A246A0
:10B72000AB46F0BD039B079300239C460A934AE671
:10B730000A9B002B2FD10A000A9B0193374B1C68F0
:10B74000A3E70B9B0593079B0293C8E68026D127AE
:10B750007602BF00C651403FC6518027C026334DF8
:10B76000BF027600AF5101262F6006602F200138FE
:10B77000C046C046C046C046C046C046C046C04699
:10B78000C046C046C046C046F1D14846067093E761
:10B79000FFF748FDBCE7079B05900293002936D0D0
:10B7A0000B689C4535D3002700200025664603E042
:10B7B00013681100B3421CD8CC68F61AC0180D608B
:10B7C000CA69002C07D0CF610F00039B8C601B1847
:10B7D0001B021B0A4B60002AEAD1104B1A600022A0
:10B7E0005B46002B0DD001230193099BDB0098469B
:10B7F00085E60A49B4460A60110060461B1A0B60D0
:10B80000EEE7012311000A9395E70A0072E600278C
:10B81000E5E70A000027F0E71100BFE70C2300204E
:10B820000405000000100140F522002000E100E0C6
:10B83000F4220020F8B5CE469946032347461D0062
:10B8400080B506000F0014009846154047D1002A25
:10B8500047D0FFF7E7FC4A46244B00211A604246D6
:10B86000234BC5201A70234B7A001C602300D21989
:10B87000D200183363609B18E3609B1863611E4B12
:10B88000C0221D601D4B258019701D4BA7701970BB
:10B8900080212581A7722582A774FF24194B4903B3
:10B8A0005200995080001A58A2433F3C22431A503C
:10B8B000A122C4241448D2001960A40086501A5949
:10B8C00012491140C02212020A431A51104BC258A9
:10B8D0000020104B1A600CBC90469946F8BD07201A
:10B8E000F9E7044B07201A60F5E7C046F022002074
:10B8F00008230020102300200C2300200023002018
:10B900000123002000E100E000100140FF00FFFFE4
:10B910000405000004230020094B1B68002B0AD0FB
:10B92000002A0AD0002808D00368187C002802D119
:10B9300059745A6170470820FCE70720FAE7C046AF
:10B9400010230020F0B5C64600B5364B1B68002B0F
:10B9500053D0002851D0042960D94469002C4CD020
:10B96000447C012C4BD00024A4462F4C6468E40591
:10B97000E40D17D003252E00103C67B2E4B2264038
:10B98000F600002F3DDBBF08C037284CBF003C59F4
:10B99000F440A4092540EDB2012D04D0032D01D1BE
:10B9A000083300E010335E789D78771CFFB2ED1B02
:10B9B0006C1EA5411C786D422F40BC4230D05D68A2
:10B9C0007400A846A419E4004444002C28D00125A2
:10B9D000606025701648174D2858E1606146A060E8
:10B9E0002161626180215F70802300200F4A5B002B
:10B9F0004903D15004BC9046F0BD0820FAE78C46BC
:10BA0000B3E70F273C400C4F083CB846A408A400FD
:10BA100044446468F440A4092540BCE70720E9E7F2
:10BA20000420E7E71023002000ED00E000E100E043
:10BA3000040500000010014018ED00E051DF7047E0
:10BA400061DF7047F0B5D6464F464646C0B53B4B22
:10BA500082B01E68994675427541394BEDB29A46DF
:10BA60001B68002B52D1002E05D102B01CBC9046A1
:10BA70009946A246F0BD334B01269846324F01ACA1
:10BA80003B882100238043461D682800FFF7D8FF2C
:10BA9000052830D0002826D14B4628001B6898473F
:10BAA000002E26D12000FFF7C9FF052821D000284D
:10BAB0003ED10025534601981B689847002D0DD0B4
:10BAC0002000FFF7BBFF01250528CED00028F1D0CC
:10BAD00000220021FFF786FB002DF1D1194B1A4FF0
:10BAE00098460026CCE700220021FFF77BFB002EC2
:10BAF000D8D00126C4E7002EB7D12000FFF79EFF63
:10BB00000528B2D000280ED10125D3E701AC2000D2
:10BB1000FFF794FF0528D9D1002EA6D0094B0126A6
:10BB2000094F9846ACE700220021FFF75BFBC7E70F
:10BB300000220021FFF756FB0026A1E71823002072
:10BB400024230020282300201423002010B50A4BB2
:10BB50001B68002B08D09847002800D110BD002298
:10BB60000021FFF73FFBF9E7044B1B78002BF5D0D2
:10BB7000FFF768FFF2E7C0461C23002020230020C7
:10BB8000F0B5D6464F464646C0B56D4B0020185E10
:10BB900002F002FC6B4D061C2860686804F0A8FAED
:10BBA0000022694B03F0F6FB01F0A4FD0401301CF8
:10BBB00004F09EFA0022644B03F0ECFB01F09AFDC6
:10BBC000624E0001001124112418706804F090FAEC
:10BBD00000225D4B03F0DEFB01F08CFD201A0C21EE
:10BBE000000101F0E1FB04F047FA0022584B03F09A
:10BBF000D1FB00F017FD04F009FA02F0CDFB306034
:10BC0000041C02F0A9FB534B746018802B68524E41
:10BC10006B60524B37680020185E04F02DFA00224A
:10BC2000494B03F0B7FB01F065FD4D4BC51B994631
:10BC30001B689A464B4B0020185E04F01DFA002248
:10BC4000414B03F0A7FB01F055FD5346181A464B34
:10BC500046499846186053460001C4176405640DB0
:10BC60002418E4121C1B4B461C6001F09DFBC719F5
:10BC70003760200004F000FA0022354B03F08AFB05
:10BC800000F0D0FC04F0C2F9394B1880280004F011
:10BC9000F3F900222E4B03F07DFB00F0C3FC04F00F
:10BCA000B5F9344B344E1880344B37680020185E99
:10BCB00004F0E2F90022244B03F06CFB01F01AFDC2
:10BCC0002F4BC51B99461B689A462E4B0020185EC9
:10BCD00004F0D2F900221C4B03F05CFB01F00AFDDA
:10BCE0005346181A0001C4176405640D2418E412A1
:10BCF0001C1B4B461C6043469021186889010001BB
:10BD000001F052FBC7193760200004F0B5F900229A
:10BD10000D4B03F03FFB01F0EDFC1B4B188028009E
:10BD200004F0AAF90022084B03F034FB01F0E2FC16
:10BD3000164B18801CBC90469946A246F0BDC046E2
:10BD400074280020402300200000304048230020B9
:10BD50000000B03FA424002034230020142700203A
:10BD60003823002060230020302300200024F4002A
:10BD700068230020BA2400202C230020DC2500208A
:10BD80003C230020D22500207E2800208023002094
:10BD9000184A53780A3BDBB2282B0BD816499B0074
:10BDA000CB589F46D278154952B20B68272A08DD36
:10BDB000013B0B607047D278114952B20B68272AB9
:10BDC000F6DC01330B60F5E7D2780E4952B20B680E
:10BDD000272AEDDCF5E7D2780B4952B20B68272A07
:10BDE000E6DCEEE7D278094952B20B68272ADFDC9D
:10BDF000E7E7C0460C270020A020020070280020A2
:10BE00006C280020E8250020FC250020D8250020F3
:10BE1000244B58706D2804D0702839D06B281DD061
:10BE20007047214A0020115E08129870D9700220D4
:10BE3000115E0812187159710420115E0812D9712F
:10BE400098710621525E111219725A72174B1B78A3
:10BE5000052BE5D16B22164B1A70E1E782221549BA
:10BE600052008A5A110ADA70134A997012781349EB
:10BE70001A71002209685A71997111495A72096838
:10BE80006D32D9710F4909681972094B1A70C7E7E9
:10BE900000229A70DA701A715A719A71DA711A72F4
:10BEA0005A72BDE7EC2500202C270020BC2400207E
:10BEB0007C280020CC24002075230020702800203E
:10BEC000FC250020E825002070B5154D154C29787B
:10BED0002000FCF7EFFF69782000FCF7EBFFA97862
:10BEE0002000FCF7E7FFE9782000FCF7E3FF297961
:10BEF0002000FCF7DFFF69792000FCF7DBFFA97960
:10BF00002000FCF7D7FFE9792000FCF7D3FF297A5E
:10BF10002000FCF7CFFF697A2000FCF7CBFF70BD53
:10BF2000EC250020CC240020822310B504000D480D
:10BF30005B00C35A002B11D10B4B20001A786023F1
:10BF40005B421343094A1370FFF762FFFFF7BCFF20
:10BF50000020FCF781FF0928FBDD10BDFCF7CAFFBC
:10BF6000EAE7C046CC240020BC240020EC250020B9
:10BF70002A4BF0B546469846D6464F4600234246E1
:10BF8000C0B513707022264F264B38001A70FCF78C
:10BF9000B1FF3800FCF7AEFF234B00259A46234B38
:10BFA000234C99468226760043461D70BA5BA02337
:10BFB000002A2AD123707023A5706370E570257163
:10BFC0006571A571E57125726572FFF77DFF00202F
:10BFD000FCF742FF0928FBDD4B469B5B072BE3D9AF
:10BFE00000F028F853461B788342DBD0434618788C
:10BFF00000F078FA3800FCF77DFF3800FCF77AFF94
:10C000001CBC90469946A246F0BD3800FCF772FF72
:10C010004346A0221B781343CCE7C046BC24002033
:10C02000CC2400207C280020B8240020902300206D
:10C03000EC250020F0B54E464546DE465746E0B5B5
:10C040008226D74DD74C83B076002800FCF742FFFC
:10C05000207000090A2800D187E0AB5B062BF4D8DA
:10C060002800FCF737FF60702800FCF733FFA07052
:10C070002800FCF72FFFE0702800FCF72BFF207151
:10C080002800FCF727FF60712800FCF723FF06005B
:10C090002800FCF71FFF00023043E080FFF778FE26
:10C0A00020780090237962789C466379A17898463D
:10C0B000C3439BB2DEB236095E4033037340FF26B2
:10C0C0001BB276015801304043405BBA9BB25340EB
:10C0D000D8B200095840030343401BB25801304016
:10C0E00043405BBA9BB24B40D8B2000958400303AF
:10C0F00043401BB2580130404340E7785BBA9BB2E3
:10C100007B40D8B200095840030343401BB258019A
:10C110003040434060465BBA9BB24340D8B200090E
:10C120005840030343401BB258013040434040464F
:10C130005BBA9BB24340D8B2000943401803434066
:10C140001BB2580106407340E0889BB2814683428F
:10C1500014D10F2300981840934B1A78012854D01B
:10C1600092490870002A02D156E0904B187803B02B
:10C170003CBC90469946A246AB46F0BD8C4E009B17
:10C180007270337063463371434673714B461B0ABA
:10C190009A46B3714B46581E8341DBB29946F37100
:10C1A000009BB170F7701B090A2B38D012090A2ABC
:10C1B00000D1E8E009090A2900D1E8E03F090A2F87
:10C1C00000D1E2E063461B090A2B00D1E3E04346BD
:10C1D0001B090A2B00D1E0E053461B090A2B49D169
:10C1E00006271DE0019B009AA3706346E370434657
:10C1F00023715346E3800F2322701A406A4B1000CC
:10C20000677066711A780128AAD16A49086067497F
:10C210000870002A00D0BCE001221A70A7E70027AE
:10C22000F35D3370F3195B787370BB1C082B00D17E
:10C23000A4E0F35CB370FB1C072B00DD99E0F35C1A
:10C24000F3703B1D072B00DD8EE0F35C33717B1D2B
:10C25000072B00DD83E0F35C7371BB1D072B79DCDA
:10C26000F35CB371002F70D1B3799A46F379994694
:10C27000337800933378FF22DB439BB2D9B20909AC
:10C280004B401903594009B252014B011340594028
:10C29000777849BA89B27940CBB21B0959400B0370
:10C2A0004B401BB2590111404B405BBAB1789BB275
:10C2B0004B40D8B200095840030343401BB2580119
:10C2C000104043405BBAF0789BB243408446D8B2FA
:10C2D00000095840030343401BB25801104043403B
:10C2E0005BBA30799BB243408046D8B200094340E4
:10C2F000180343401BB25801104043405BBA7679A3
:10C300009BB27340D8B200094340180343405046E3
:10C3100000028246019148465146084301B28946CF
:10C320001BB289B28A4659010A4053401BB24B45A1
:10C3300000D157E782235B00EB5A072B00D814E7A4
:10C34000FFF778FE194B187811E72800FCF7C2FDBB
:10C35000F07189E72800FCF7BDFDB07182E7280085
:10C36000FCF7B8FD707178E72800FCF7B3FD307179
:10C370006DE72800FCF7AEFDF07062E72800FCF7DF
:10C38000A9FDB07057E701274AE7032748E70227CE
:10C3900046E70120EBE6042742E7052740E7C046D1
:10C3A000902300200C27002074230020BC240020B0
:10C3B0005C280020E0250020002310B5044A13600B
:10C3C000044A138053809380D380FCF743F810BD58
:10C3D000C824002064280020002310B5034A1370ED
:10C3E000034A1370FFF7C4FD10BDC046BC240020F3
:10C3F00074230020962370B5144D92242B806B80FB
:10C40000AB80EB80FCF726F8FF346F20013CFFF790
:10C410008BFD002CF9D10E4B0E4E1B683460002BA7
:10C4200010D06D220C4B1A700C4B0D4A1A600D4B3C
:10C430001C70002333602B806B80AB80EB80FCF79B
:10C4400009F870BDFFF794FDF3E7C04664280020AB
:10C45000C4240020C824002050270020702300207E
:10C46000B9C301008A23002010B5FCF773F9FCF76B
:10C4700093F9FBF7EFFF10BD10B5FEF71BFE002888
:10C4800006D1FCF713F8FCF787F9FBF7E3FF10BDC3
:10C49000FEF782FDF5E7C04610B5FEF70BFE00285B
:10C4A00006D1FCF73DF8FCF777F9FBF7D3FF10BD99
:10C4B000FEF772FDF5E7C04610B5FEF7B7FDFFF7D2
:10C4C0005FFBFCF799F8FCF767F9FBF7C3FF10BDBA
:10C4D00010B5FCF765FEFCF707F9FCF75DF9FBF713
:10C4E000B9FF10BD072809D8284A8300D3589F46B2
:10C4F0000022274B1A60274B274A1A60274B1870D7
:10C5000070470122224B1A60224B254A1A60F5E738
:10C510006D22244B1A701F4B234A1A60EEE76F22DC
:10C52000204B1A7000221A4B1A60204B01321A70ED
:10C53000184B1F4A1A60E1E76D221A4B1A70154B0F
:10C540001C4A1A60DAE76322164B1A700022104B5D
:10C550001A60164B03321A700E4B174A1A60CDE759
:10C560006D22104B1A700022094B1A60094B134AB6
:10C570001A60C3E76B220B4B1A700023104A13702A
:10C58000034A1360034B0F4A1A60B7E744210200C5
:10C590002027002070230020D1C401008A2300201E
:10C5A000B9C4010050270020B9C301001C27002096
:10C5B000F5C3010069C40100D9C3010079C40100B9
:10C5C0007523002099C4010003210A4802680A4328
:10C5D0000260094802680A4302600849084A094B98
:10C5E0009B1A03DD043BC858D050FBDC064880474B
:10C5F000064800472405004054050040C0230200BF
:10C6000000200020A82000200982010009810100EB
:10C61000FEE7FEE7FEE7FEE7FEE7FEE749004B0820
:10C6200019007047F8B54B00244C5B0D1D190A002A
:10C630000600132D1ADC002D08DB214B0C002B41CA
:10C640001A000A40024309D12100F8BDC90FC907E9
:10C650006B1C2DD00A0000201400F5E78022120385
:10C660002A4152189A4300201400EDE7332D0ADDC9
:10C6700080230C00DB009D42E6D102000B0001F09C
:10C6800015FF0C00E0E70F4CA4460124634464420C
:10C69000DC4004420AD033235D1B323BAB40181808
:10C6A000864200D94A1CA0431400CDE70C00CBE71A
:10C6B000054A00200A431400C6E7C04601FCFFFFFC
:10C6C000FFFF0F00EDFBFFFF0000F03FF0B5474616
:10C6D000CE4680B58DB004000D0000F0BDF8264BAD
:10C6E000060098461B780F005BB2013312D022007F
:10C6F0002B002000290003F06DFC8146002809D1A1
:10C7000020002900FFF78AFF00221C4B00F062FF87
:10C71000002806D1300039000DB00CBC9046994677
:10C72000F0BD01230293164B164803934B46069423
:10C7300007950A930494059500F0A6FD43461B78DF
:10C74000089009915BB2022B0BD002A800F09AFD71
:10C75000002806D00A9B0193002B07D1089E099F51
:10C76000D8E703F035FD21230360F3E703F030FD44
:10C770000A9B01930360F1E79D2000200000F03F39
:10C78000642102008C12020010B500F04DFA10BDB9
:10C79000F0B54746CE4680B58DB004000D0000F0E0
:10C7A00001FB2B4B06001B780F005BB29846013350
:10C7B00010D022002B002000290003F00BFC814642
:10C7C000002807D1002200232000290000F0EEFEFF
:10C7D000002806D1300039000DB00CBC90469946B7
:10C7E000F0BD012302931B4B0694079503934B4620
:10C7F0000A93434604940595002B15D0002300228C
:10C800001900100002F0C8F9434608900991022B64
:10C810000ED103F0DDFC212303600A9B0193002B62
:10C820000FD1089E099FD5E700230024089309949F
:10C8300002A800F027FD0028EBD00A9B0193002BF3
:10C84000EFD003F0C5FC0A9B01930360E9E7C04603
:10C850009D2000206C210200F0B54F46D64680B5E1
:10C86000CF4B4E0089B007008A46894676089E4223
:10C8700028DDCC4B9C46664406430ED002000B00DC
:10C880003800514603F00EF802000B0002F084F964
:10C8900009B00CBC91469A46F0BDC34AC34B380060
:10C8A000514602F077FDC24A04000D00C14B38002A
:10C8B000514602F06FFD02000B002000290001F03C
:10C8C000F5FDE5E7BC4B9E4210DCBC4B9E4200DD13
:10C8D000FEE0BB4ABB4B3800514601F0E7FD0022A9
:10C8E000B94B00F077FE002800D0EEE0380051464A
:10C8F000FFF794FE02000B000020B34902F0D2FFC4
:10C900000022B24B02F046FD04000D00B04AB14BCC
:10C9100002F040FDB04AB14B01F0C8FD22002B00EF
:10C9200002F038FDAE4AAF4B02F0BCFF22002B00F4
:10C9300002F030FDAC4AAD4B01F0B8FD22002B00F7
:10C9400002F028FDAA4AAB4B02F0ACFF22002B00FC
:10C9500002F020FDA84AA94B01F0A8FD22002B00FF
:10C9600002F018FDA64A02900391A64B2000290070
:10C9700002F010FDA44AA54B02F094FF22002B0008
:10C9800002F008FDA24AA34B01F090FD22002B000B
:10C9900002F000FDA04AA14B02F084FF22002B0010
:10C9A00002F0F8FC884B002201F080FD0490059114
:10C9B0002000290000F0F6F9994B009001919E4269
:10C9C00064DC0098019902000B000F0001F06EFD7D
:10C9D000049A059B069007910298039902F0DCF8EF
:10C9E00002000B000698079902F0D4FC0026029082
:10C9F000039132003B003000390002F0CBFC020012
:10CA00000B002000290002F04DFF320004000D0051
:10CA1000009801993B0001F049FD02000B00200045
:10CA2000290002F0B9F802000B0001F03FFD0200FE
:10CA30000B005F485F4902F035FF02000B000298CF
:10CA4000039902F02FFF320004000D003B0030007C
:10CA5000390001F02BFD02000B005348714902F030
:10CA600021FF02000B002000290002F01BFF020042
:10CA70000B004D486B4902F015FF4B46002B00DDC3
:10CA800006E780231B069C46614401E7049A059B48
:10CA90000298039902F080F8009C019D22002B006F
:10CAA00002F078FC22002B0001F000FD02000B00D8
:10CAB00001F0FCFC3E4A3F4B02F0F4FE02000B008A
:10CAC00039483A4902F0EEFED7E738005146DFE632
:10CAD00002000B003800514602F05CFC04000D001F
:10CAE0003B4A3C4B02F056FC3B4A3C4B01F0DEFC1F
:10CAF00022002B0002F04EFC394A3A4B02F0D2FEE3
:10CB000022002B0002F046FC374A384B01F0CEFCE5
:10CB100022002B0002F03EFC354A364B02F0C2FEEA
:10CB200022002B0002F036FC334A344B01F0BEFCED
:10CB300022002B0002F02EFC314A00900191314B73
:10CB40002000290002F026FC2F4A304B02F0AAFEFA
:10CB500022002B0002F01EFC2D4A2E4B01F0A6FCF9
:10CB600022002B0002F016FC2B4A2C4B02F09AFEFE
:10CB700022002B0002F00EFC0022134B01F096FC69
:10CB800002000B000098019902F006F83A005346A3
:10CB900002F000FC3A00534601F088FC78E6C046FB
:10CBA000FFFFEF3F000010C0182D4454FB21F93F58
:10CBB000075C143326A6913CFFFFDF3FFFFF3F3E9B
:10CBC0009C7500883CE4377E0000F03F0000E03FA9
:10CBD00009F7FD0DE13D023F88B20175E0EF493FE5
:10CBE0003B8F68B52882A43F5544880E55C1C93F84
:10CBF0007D6FEB0312D6D43F555555555555C53F5E
:10CC000082922EB1C5B8B33F59018D1B6C06E63F29
:10CC1000C88A599CE52A00404B2D8A1C273A0340BC
:10CC20003233EF3FFB21E93FF8B515004746CE46CA
:10CC30005A001C006B4280B52B434C4F5208DB0F4F
:10CC40001343BB421DD84B005B089C4666464342DB
:10CC50000343DB0F89463343BB4212D8444BE318EE
:10CC60002B433FD00226A3171E40CB0F1E43634623
:10CC7000034310D1022E38D0032E08D13D483E493F
:10CC800005E002000B002800210001F00FFC0CBCA5
:10CC900090469946F8BD13002B431DD0BA422AD0C6
:10CCA000BC4519D063469A1A12153C2A20DC002C88
:10CCB0002EDA3C322CDA00200021012E3CD0022E4C
:10CCC0002FD0002EE3D02D4A2D4B02F0EBFD294A48
:10CCD0002C4B02F0E7FDDAE74B462648002B15DB2C
:10CCE0002949D4E700F03CF9D1E722482549CEE7AD
:10CCF00020482549E1E7944523D0022EF5D0032EA4
:10CD0000BCD00020012E25D00021C0E71F49BEE77E
:10CD10002A00230001F040FFFFF780FC00F020F91B
:10CD2000CBE7164A164B02F0BDFD02000B0011487E
:10CD3000144902F0B7FDAAE7802424060B19190054
:10CD4000A5E7022E0ED0032E09D00A48012E04D0EA
:10CD50000F499CE78021090699E70E4997E70E489D
:10CD60000E4994E70C480E4991E7C0460000F07F59
:10CD7000000010C0182D4454FB2109C0075C143377
:10CD800026A6A13CFB210940FB21F93FFB21F9BF6D
:10CD9000FB21E93FFB21E9BFD221337F7CD902C0CF
:10CDA0007CD90240F8B54746CE466A4A80B50B00AA
:10CDB0000F001100050004003940914200D1A1E0AC
:10CDC000002F69DD3F1500D1B4E0634A1B03944690
:10CDD00080221B0B520313435B00E20F67449B1836
:10CDE0006200F90703D5D20F5B009B18A2007910EF
:10CDF0008C46002180201624894680030D189D4210
:10CE000002DC29185B1B8144D50F5B00013CEB1849
:10CE100052004008002CF1D10020804680202025BF
:10CE20000027000609E08B425DD0D40F5B00013D76
:10CE30001B1952004008002D16D0C4198B42F2DD98
:10CE400027180E00002C4ADB5B1AA2428941494296
:10CE50005B1A121BD40F5B00013D804431001B198B
:10CE600052004008002DE8D1134344D143465B08EB
:10CE70003A494A468846494652104244C90702D5B3
:10CE8000802109060B4361461D000F05B9182800D3
:10CE90000CBC90469946F8BD7A00520802434CD02B
:10CEA000002F3BD1E00A153B020064050028F9D0B1
:10CEB00080214903084247D180200027400300E039
:10CEC0002F0052007D1C0242FAD0202610002200C2
:10CED000AC40761BDF1B1300F340034375E7FE43B2
:10CEE000F60F8E19B0E794429FD82718002CF6DB76
:10CEF0001E000023ADE74346013320D043460133F3
:10CF00005B08B5E702003B002800390002F042FA56
:10CF10002A003B0001F0CAFA0500B8E702003B0016
:10CF20002800390002F0BEFC02000B0001F034FEC4
:10CF30000500ACE71A000023BEE73900A7E701238C
:10CF400098460023C14493E70127220020267F4210
:10CF5000C0E7C0460000F07F01FCFFFF0000E03F9B
:10CF6000F8B54E4657464546DE469F4BE0B54E0067
:10CF700080468A46894676089E421CDD9B4B9E422F
:10CF800009DC06D04B46002B00DCBAE0984B994AEE
:10CF900009E00028F6D0424653464046514601F08B
:10CFA00085FA03000A00180011003CBC904699461F
:10CFB000A246AB46F8BD904B9E4200DDADE08F4BE4
:10CFC0009E4200DC8FE001235B429B464246534673
:10CFD0004046514602F0DEF902000B0006000F0049
:10CFE00002F0D8F904000D00854A864B02F0D2F910
:10CFF000854A864B01F05AFA22002B0002F0CAF94A
:10D00000834A844B01F052FA22002B0002F0C2F94D
:10D01000814A824B01F04AFA22002B0002F0BAF951
:10D020007F4A804B01F042FA22002B0002F0B2F955
:10D030007D4A7E4B01F03AFA32003B0002F0AAF939
:10D040007B4A06000F007B4B2000290002F0A2F96A
:10D05000794A7A4B02F026FC22002B0002F09AF962
:10D06000774A784B02F01EFC22002B0002F092F966
:10D07000754A764B02F016FC22002B0002F08AF96A
:10D08000734A744B02F00EFC22002B0002F082F96E
:10D0900002000B003000390001F008FA5346424606
:10D0A00002F078F95B4601332ED05B466A4A6B4C3E
:10D0B000DB00E418D3181A685B6802F0F3FB424601
:10D0C000534602F0EFFB02000B002068616802F09B
:10D0D000E9FB030048460A00002800DB63E78022E2
:10D0E00012068A185FE75E4A5E4B01F0DFF9002204
:10D0F0005D4B00F06FFA002800D164E743465246CA
:10D1000051E73B4B594A4EE702000B00404651465F
:10D1100002F0C8FB03000A0045E7FFF77FFA544B13
:10D1200004000D009E421EDC524B9E4244DC020075
:10D130000B0001F0BBF900224B4B02F0B3FB802344
:10D1400006000F000022DB052000290001F0AEF9E7
:10D150000B0002003900300001F01EFD0023804664
:10D160008A469B4632E7444B9E421ADC0022434BE0
:10D1700002F098FB002206000F00404B200029001F
:10D1800002F008F90022384B01F090F90B00020080
:10D190003900300001F000FD022380468A469B469C
:10D1A00014E70B0002003649002001F0F5FC0323D0
:10D1B00080468A469B4609E700222B4B02F072FB11
:10D1C000002206000F00284B2000290001F06EF914
:10D1D0000B0002003900300001F0DEFC0123804624
:10D1E0008A469B46F2E6C046FFFF0F440000F07FF0
:10D1F000182D4454FB21F93FFFFFDB3FFFFF1F3E8B
:10D2000011DA22E33AAD903FEB0D76244B7BA93F38
:10D21000513DD0A0660DB13F6E204CC5CD45B73F06
:10D22000FF8300922449C23F0D5555555555D53FB2
:10D230002F6C6A2C44B4A2BF9AFDDE522DDEAD3FA6
:10D240006D9A74AFF2B0B33F711623FEC671BC3F46
:10D25000C4EB98999999C93F98210200782102005E
:10D260009C7500883CE4377E0000F03FFB21F9BF4D
:10D27000FFFFF23FFFFFE53FFF7F03400000F83F65
:10D280000000F0BF00207047002001497047C046F1
:10D290000000F87F002243088B4274D303098B42BD
:10D2A0005FD3030A8B4244D3030B8B4228D3030C76
:10D2B0008B420DD3FF22090212BA030C8B4202D318
:10D2C0001212090265D0030B8B4219D300E0090A40
:10D2D000C30B8B4201D3CB03C01A5241830B8B4249
:10D2E00001D38B03C01A5241430B8B4201D34B0332
:10D2F000C01A5241030B8B4201D30B03C01A524197
:10D30000C30A8B4201D3CB02C01A5241830A8B421B
:10D3100001D38B02C01A5241430A8B4201D34B0204
:10D32000C01A5241030A8B4201D30B02C01A524168
:10D33000CDD2C3098B4201D3CB01C01A524183091C
:10D340008B4201D38B01C01A524143098B4201D356
:10D350004B01C01A524103098B4201D30B01C01A81
:10D360005241C3088B4201D3CB00C01A52418308FB
:10D370008B4201D38B00C01A524143088B4201D328
:10D380004B00C01A5241411A00D201465241104688
:10D390007047FFE701B5002000F0F0F802BDC0467D
:10D3A0000029F7D076E7704703460B437FD400226D
:10D3B00043088B4274D303098B425FD3030A8B4229
:10D3C00044D3030B8B4228D3030C8B420DD3FF2293
:10D3D000090212BA030C8B4202D31212090265D061
:10D3E000030B8B4219D300E0090AC30B8B4201D314
:10D3F000CB03C01A5241830B8B4201D38B03C01A5B
:10D400005241430B8B4201D34B03C01A5241030BD1
:10D410008B4201D30B03C01A5241C30A8B4201D382
:10D42000CB02C01A5241830A8B4201D38B02C01A2D
:10D430005241430A8B4201D34B02C01A5241030AA4
:10D440008B4201D30B02C01A5241CDD2C3098B4289
:10D4500001D3CB01C01A524183098B4201D38B0106
:10D46000C01A524143098B4201D34B01C01A5241A9
:10D4700003098B4201D30B01C01A5241C3088B42EE
:10D4800001D3CB00C01A524183088B4201D38B00D9
:10D49000C01A524143088B4201D34B00C01A52417B
:10D4A000411A00D201465241104670475DE0CA0F52
:10D4B00000D04942031000D34042534000229C4612
:10D4C00003098B422DD3030A8B4212D3FC2289011C
:10D4D00012BA030A8B420CD3890192118B4208D3F2
:10D4E000890192118B4204D389013AD0921100E054
:10D4F0008909C3098B4201D3CB01C01A5241830968
:10D500008B4201D38B01C01A524143098B4201D394
:10D510004B01C01A524103098B4201D30B01C01ABF
:10D520005241C3088B4201D3CB00C01A5241830839
:10D530008B4201D38B00C01A5241D9D243088B428F
:10D5400001D34B00C01A5241411A00D20146634632
:10D5500052415B10104601D34042002B00D5494296
:10D56000704763465B1000D3404201B5002000F0D5
:10D5700005F802BD0029F8D016E770477047C0468D
:10D580008446101C62468C46191C634600E0C04667
:10D590001FB501F09BFE002801D40021C8421FBD29
:10D5A00010B501F0EFFD4042013010BD10B501F0A3
:10D5B0008DFE002801DB002010BD012010BDC046FB
:10D5C00010B501F083FE002801DD002010BD012010
:10D5D00010BDC04610B501F015FE002801DC00208A
:10D5E00010BD012010BDC04610B501F00BFE002893
:10D5F00001DA002010BD012010BDC0468446081C81
:10D600006146FFE71FB500F09DFB002801D4002113
:10D61000C8421FBD10B500F01FFB4042013010BDD5
:10D6200010B500F08FFB002801DB002010BD0120A9
:10D6300010BDC04610B500F085FB002801DD0020BC
:10D6400010BD012010BDC04610B500F02DFB002814
:10D6500001DC002010BD012010BDC04610B500F057
:10D6600023FB002801DA002010BD012010BDC046B8
:10D67000F0B5CE46474615042D0C2E0080B50704A4
:10D68000140C3F0C9946030C7E435D436743634390
:10D690007F19340CE4199C46A54203D980235B0210
:10D6A0009846C4444B4643435143250C36046544D5
:10D6B000360C2404A4195B19591820000CBC9046A0
:10D6C0009946F0BD9E2110B5C905041CFFF7C6FFA1
:10D6D000002803D1201C00F03FFE10BD9E21201C1D
:10D6E000C90500F093FC00F037FE80231B069C4622
:10D6F0006044F2E770B500220C4B04000D00FFF708
:10D7000073FF002804D12000290002F07FFC70BDC7
:10D71000064B00222000290002F0C4F802F076FC3B
:10D7200080231B069C466044F1E7C0460000E041B0
:10D73000F8B54C02640A4746A0464C00C90FCE46D5
:10D7400089464146430246005B0A360E240E80B5E8
:10D75000C50F9C463200D800C900371B4D4560D02C
:10D76000002F48DD002C00D17CE0FF2E00D183E0AB
:10D770008023DB04194301231B2F07DC0B0020222D
:10D78000FB40D71BB9404A1E91410B43C31A5A01B3
:10D7900000D4A8E09B019C09200002F0FBFC0538A6
:10D7A0008440864200DDADE0861B22002020013649
:10D7B000F240861BB44023005C1EA34100261343A5
:10D7C0005A0704D00F221A40042A00D004335A0109
:10D7D00000D48BE00136F2B2FF2E00D18FE09B0126
:10D7E0005B0A5B02D205580AED07104328430CBCC4
:10D7F00090469946F8BD002F49D1FE24771C3C4243
:10D8000000D086E0002E00D0DEE0002800D1D1E07C
:10D810000029E6D0431A5C0100D4F1E00B1A4D4612
:10D82000CEE7002F4ADD002C3FD0FF2E24D08023EE
:10D83000DB04194301231B2F07DC0B002022FB40D4
:10D84000D71BB9404A1E91410B431B185A014AD5B8
:10D850000136FF2E53D0012271491A405B080B405C
:10D860001343ADE7002943D0013F431A002F00D1F5
:10D870008DE7FF2E00D07EE76346002B3FD080234C
:10D880006246DB0313435B025B0AFF22A9E7A21B8C
:10D89000002E60D1002878D0013A002A00D1B5E0EE
:10D8A000FF2C5DD14D46C446E6E7002920D0013F5C
:10D8B0004318002FCAD0FF2EBCD1DDE7002F32D194
:10D8C000FE24013634427AD1002A62D1002800D1E8
:10D8D000A0E0002900D184E7431800265A0102D5B0
:10D8E000504A013613405A0700D06BE7DB089C46CC
:10D8F000FF2EC1D063465B025B0AF2B271E7FF22E2
:10D9000000236EE7474B361A23405A0700D059E7E9
:10D91000ECE7441A630161D4002C00D03CE70025F9
:10D92000002200235DE7A21B002E28D100282DD065
:10D93000013A002A70D0FF2CB5D001231B2A07DC46
:10D9400003002026D340B21A9040421E9041034368
:10D950005B1826007AE7FF2CA4D08023DB04184351
:10D9600001231B2A07DC03002025D340AA1A90407C
:10D97000421E90410343CB1A4D46260007E7FF2C79
:10D9800091D08023DB041843D7E74D46C4462600D8
:10D99000AEE7002887D0002900D16DE780236246DA
:10D9A000DB031A4200D167E742461A4200D063E720
:10D9B000C44661E7002926D04D46434611E7FF2EB5
:10D9C0009DD043185B088EE700280AD1002900D0BB
:10D9D00068E780230025DB03FF2202E70C1A4D468F
:10D9E000DAE6002900D147E780236246DB031A42CA
:10D9F00000D141E742461A4200D03DE74D4652E78A
:10DA0000002B00D06FE700250023EAE60B1A4D46F5
:10DA10002600BCE64346E4E64318260016E7C04667
:10DA2000FFFFFF7DFFFFFFFBF0B54F464646D646A2
:10DA300044024500C0B5640A0F1C2D0EC60F002D10
:10DA40004FD0FF2D55D08023E400DB041C4300237E
:10DA500099469A467F3D7B0278005B0A9846000E05
:10DA6000FF0F002831D0FF2810D08022DB00D20425
:10DA70001A43904600217F382D1A4B4632000B4343
:10DA800071489B00C3587A40D2B29F46FF3D002B9D
:10DA900054D102234946194332000B007A40033B1C
:10DAA000D2B20C2B04D869499B00CB589F463A0050
:10DAB000002000246402C305600AD2071843104303
:10DAC0001CBC90469946A246F0BD002B2BD10123E9
:10DAD0004946320019438B005D497A40CB58D2B297
